:020000040800F2
:1000000000060020ED000008F5000008F7000008D9
:10001000F9000008FB000008FD00000800000000D7
:10002000000000000000000000000000FF000008C9
:10003000010100080000000003010008050100089C
:100040000701000807010008070100080701000870
:100050000701000807010008070100080701000860
:100060000701000807010008070100080701000850
:100070000701000807010008070100080701000840
:100080000701000807010008070100080701000830
:100090000701000807010008070100080701000820
:1000A0000701000807010008070100080701000810
:1000B0000701000807010008070100080701000800
:1000C00007010008070100080701000807010008F0
:1000D00007010008070100080701000807010008E0
:1000E00007010008070100080701000809488047C8
:1000F00009480047FEE7FEE7FEE7FEE7FEE7FEE70A
:10010000FEE7FEE7FEE7FEE704480549054A064B21
:100110007047000061020008C902000800000020CA
:1001200000060020000200200002002070477047F7
:100130007047000080B500F001F880BD84B0002059
:100140000390029041F20001C4F20201086840F4F9
:1001500080300860FFE741F20000C4F2020000684E
:1001600000F400300290039801300390FFE70299F9
:100170000020019039B9FFE70398B0F5A06018BFDF
:1001800001200190FFE70198C0070028E3D1FFE7B5
:1001900041F20000C4F2020000688003002803D589
:1001A000FFE70120029002E000200290FFE70298A2
:1001B000012851D1FFE742F20001C4F202010868B0
:1001C00040F010000860086820F007000860086828
:1001D00040F00200086041F20401C4F20201009103
:1001E0000868086008680860086840F48060086073
:1001F000086820F47C100860086840F4E810086083
:1002000041F20001C4F20201086840F08070086009
:10021000FFE741F20000C4F20200006880010028FC
:1002200001D4FFE7F5E741F20401C4F202010868D6
:1002300020F003000860086840F002000860FFE753
:1002400041F20400C4F20200006800F00C0008282B
:1002500001D0FFE7F4E700E0FFE704B070470000DB
:1002600080B541F20002C4F20202106840F00100C1
:10027000106041F20401C4F2020108680023CFF6C5
:10028000FF031840086010684FF6FF73CFF6F6635F
:1002900018401060106820F480201060086820F476
:1002A000FE00086041F20801C4F202014FF41F0091
:1002B0000860FFF73FFF4EF60851CEF200014FF005
:1002C0000060086080BD000000F0D9FA4FF0000A1D
:1002D0001146284601F5A07400F1F00300F0ACFAD5
:1002E00000F00DF94FF0FA024FF0C80500F043F8A6
:1002F0004FF481724FF0B4054FF6FF7A02F101011D
:1003000005F1020001F1030400F1020300F094FA88
:1003100002F1020105F1000001F1010400F1050301
:1003200000F08AFA02F1000105F1030001F1050471
:1003300000F1000300F080FA4FF0B4024FF0960590
:100340004FF4FC6A02F1000105F1000001F105041F
:1003500000F1010300F070FA02F1010105F1020061
:1003600001F1030400F1010300F066FA4FF02802E6
:100370004FF07805FEE72DE93F444FF6FF7A02F192
:10038000030105F1150001F10F0400F1010300F074
:1003900053FA4FF6FF7A02F1000105F1120001F164
:1003A000150400F1020300F047FA4FF01F0A02F1B2
:1003B000000105F1100001F1150400F1010300F046
:1003C0003BFA4FF01F0A02F1060105F10B0001F1A3
:1003D000090400F1040300F02FFA4FF01F0A02F1A4
:1003E000080105F1040001F1050400F1060300F025
:1003F00023FA4FF4784A02F1090105F1000001F1F6
:10040000030400F1020300F017FA4FF4784A02F1F6
:10041000000105F10A0001F1030400F1050300F0F9
:100420000BFA4FF4784A02F1120105F10A0001F1CA
:10043000030400F1050300F0FFF94FF6FF7A02F123
:10044000000105F10D0001F1020400F1020300F0CA
:10045000F3F94FF6FF7A02F1130105F10D0001F1F6
:10046000020400F1020300F0E7F94FF4784A02F1C8
:10047000080105F1170001F1050400F1010300F086
:10048000DBF94FF01F0A02F1060105F1170001F137
:10049000030400F1000300F0CFF94FF01F0A02F14E
:1004A0000C0105F1170001F1030400F1000300F055
:1004B000C3F94FF6FF7A02F1090105F1050001F1D8
:1004C000030400F1060300F0B7F94FF6FF7A02F1DA
:1004D000070105F10C0001F1070400F1050300F02C
:1004E000ABF94FF4784A02F1090105F10D0001F171
:1004F000030400F1030300F09FF9BDE83F843FB51A
:100500004FF029054FF002004FF018024FF005019F
:1005100000F019F802F13102491E0029F8DA05F15C
:100520001F05401E0028EFDA3FBD2DE91F444FF0A4
:10053000000A1146284601F1220400F1150300F0DB
:100540007BF9BDE81F842DE93F444FF4FC6A02F1BA
:10055000000105F1080001F1220400F1070300F099
:100560006BF94FF4784A02F1010105F1090001F13C
:10057000200400F1050300F05FF94FF4FC6A02F17A
:10058000020105F1030001F11E0400F1080300F06F
:1005900053F94FF4FC6A02F1080105F1000001F182
:1005A000130400F1030300F047F94FF4784A02F115
:1005B0000A0105F1050001F1020400F1040300F055
:1005C0003BF94FF4784A02F1170105F1050001F1FA
:1005D000020400F1040300F02FF94FF4FC6A02F169
:1005E000030105F10D0001F1040400F1080300F01E
:1005F00023F94FF4FC6A02F10B0105F10D0001F142
:10060000040400F1080300F017F94FF4FC6A02F14A
:10061000130105F10D0001F1040400F1080300F0DD
:100620000BF94FF4FC6A02F11B0105F10D0001F119
:10063000040400F1080300F0FFF8BDE83F840FB5A3
:10064000B34908684FF001034FEA03236FEA03033D
:1006500000EA03000880AF490A70AD4908684FF00E
:10066000010340EA032008800FBD0FB5A8490868C0
:100670004FF0010340EA43200880A54908684FF085
:1006800001034FEAC3136FEA030300EA0300088083
:10069000FFF7D5FF0FBD0FB59D4908684FF0010367
:1006A00040EA432008809A4908684FF0010340EA75
:1006B000C3100880FFF7C3FF0FBD0FB5944908684A
:1006C0004FF0010340EAC330088000F010F9904970
:1006D00008684FF001034FEAC3336FEA030300EAEF
:1006E0000300088000F003F9894908684FF001030E
:1006F00040EAC330088000F0FAF8854908684FF0F6
:10070000010340EA83100860814908684FF0010343
:1007100040EA032008807E4908684FF0010340EA60
:10072000432008807A4908684FF001034FEA831399
:100730006FEA030300EA030008604FF0C502FFF709
:1007400094FF4FF07F02FFF7A6FF4FF00002FFF784
:10075000A2FF4FF03602FFF788FF4FF00802FFF7C5
:100760009AFF4FF03A02FFF780FF4FF05502FFF774
:1007700092FF4FF01102FFF778FF00F0B8F84FF04A
:100780002902FFF772FF4FF02002FFF76EFF4FF0D4
:100790002C02FFF76AFF0FBD1FB54FF02A02FFF7CB
:1007A00064FF02464FEA1222FFF775FF0246FFF789
:1007B00072FF0A464FEA1222FFF76DFF0A46FFF763
:1007C0006AFF4FF02B02FFF750FF1A464FEA122242
:1007D000FFF761FF1A46FFF75EFF22464FEA12223B
:1007E000FFF759FF2246FFF756FF4FF02C02FFF7A5
:1007F0003CFF1FBD2DE93F44454B1C684FF00105F0
:100800004FEA85156FEA050504EA05041C600B46EE
:1008100000F1010103F10104FFF7BEFF4FF02C02CC
:10082000FFF723FF52464FEA1222FFF734FF5246EA
:10083000FFF731FFBDE83F842DE9FF5F1FB402B42D
:1008400008B402BC08BCFFF7A7FF1FBC1B1A03F1CA
:100850000103641A04F1010403FB04F34FF02C02BA
:10086000FFF703FF52464FEA1222FFF714FF5246EA
:10087000FFF711FF5B1E002BF4DCBDE8FF9F2DE9A5
:10088000FF5F00F004F8FFF718FFBDE8FF9F07B512
:10089000214801684FF0010241EA820101601F48CE
:1008A0004FF0333202601E484FF0333202601A4874
:1008B00001684FF0010241EA021101601948016824
:1008C0004FF08831016018484FF000010160124874
:1008D00001684FF0010241EAC201016013484FF084
:1008E0003331016012484FF03331016007BD2DE90B
:1008F000FF5F104801380028FCDCBDE8FF9F2DE9B0
:10090000FF5F0C48B0F57A700028FBDCBDE8FF9F64
:100910000C0C01400C080140181002400008014076
:1009200004080140041001400C100140000C01407B
:08093000040C014004605600B4
:04000005080000ED02
:00000001FF
