:020000040800F2
:1000000018060020ED000008F5000008F7000008C1
:10001000F9000008FB000008FD00000800000000D7
:10002000000000000000000000000000FF000008C9
:10003000010100080000000003010008050100089C
:100040000701000807010008070100080701000870
:100050000701000807010008070100080701000860
:100060000701000807010008070100080701000850
:100070000701000807010008070100080701000840
:100080000701000807010008070100080701000830
:100090000701000807010008070100080701000820
:1000A0000701000807010008070100080701000810
:1000B0000701000807010008070100080701000800
:1000C00007010008070100080701000807010008F0
:1000D00007010008070100080701000807010008E0
:1000E00007010008070100080701000809488047C8
:1000F00009480047FEE7FEE7FEE7FEE7FEE7FEE70A
:10010000FEE7FEE7FEE7FEE704480549054A064B21
:100110007047000061020008490B00081800002029
:1001200018060020180200201802002070477047AF
:100130007047000080B500F001F880BD84B0002059
:100140000390029041F20001C4F20201086840F4F9
:1001500080300860FFE741F20000C4F2020000684E
:1001600000F400300290039801300390FFE70299F9
:100170000020019039B9FFE70398B0F5A06018BFDF
:1001800001200190FFE70198C0070028E3D1FFE7B5
:1001900041F20000C4F2020000688003002803D589
:1001A000FFE70120029002E000200290FFE70298A2
:1001B000012851D1FFE742F20001C4F202010868B0
:1001C00040F010000860086820F007000860086828
:1001D00040F00200086041F20401C4F20201009103
:1001E0000868086008680860086840F48060086073
:1001F000086820F47C100860086840F4E810086083
:1002000041F20001C4F20201086840F08070086009
:10021000FFE741F20000C4F20200006880010028FC
:1002200001D4FFE7F5E741F20401C4F202010868D6
:1002300020F003000860086840F002000860FFE753
:1002400041F20400C4F20200006800F00C0008282B
:1002500001D0FFE7F4E700E0FFE704B070470000DB
:1002600080B541F20002C4F20202106840F00100C1
:10027000106041F20401C4F2020108680023CFF6C5
:10028000FF031840086010684FF6FF73CFF6F6635F
:1002900018401060106820F480201060086820F476
:1002A000FE00086041F20801C4F202014FF41F0091
:1002B0000860FFF73FFF4EF60851CEF200014FF005
:1002C0000060086080BD000000F0FAF94FF0000AFD
:1002D0001146284601F5A07400F1F00300F0EAFA97
:1002E00000F045F9F249F34F0A883D8800F07BF8A9
:1002F0004FF0B4024FF096054FF4FC6A00F033F86B
:100300004FF028024FF07805EB48028842F4706203
:10031000028000F004FCE848028842F47062028027
:100320004FF000004FF000014FF430624FF4506383
:100330004FF46064E148016801F47061914206D0B5
:10034000994207D000F058FAA14206D0E1E700F048
:10035000F6F9DEE700F0DDF9DBE700F003FAD8E7B5
:10036000FEE7BDE8FF9F2DE93F444FF0B4024FF098
:1003700096054FF4FC6A02F1000105F1000001F15D
:10038000050400F1010300F095FA02F1010105F105
:10039000020001F1030400F1010300F08BFABDE853
:1003A0003F842DE93F4402F1010105F1020001F112
:1003B000030400F1020300F07DFA02F1020105F1ED
:1003C000000001F1010400F1050300F073FA02F1ED
:1003D000000105F1030001F1050400F1000300F044
:1003E00069FABDE83F842DE93F444FF6FF7A02F1F8
:1003F000030105F1150001F10F0400F1010300F004
:1004000059FA4FF6FF7A02F1000105F1120001F1ED
:10041000150400F1020300F04DFA4FF01F0A02F13B
:10042000000105F1100001F1150400F1010300F0D5
:1004300041FA4FF01F0A02F1060105F10B0001F12C
:10044000090400F1040300F035FA4FF01F0A02F12D
:10045000080105F1040001F1050400F1060300F0B4
:1004600029FA4FF4784A02F1090105F1000001F17F
:10047000030400F1020300F01DFA4FF4784A02F180
:10048000000105F10A0001F1030400F1050300F089
:1004900011FA4FF4784A02F1120105F10A0001F154
:1004A000030400F1050300F005FA4FF6FF7A02F1AC
:1004B000000105F10D0001F1020400F1020300F05A
:1004C000F9F94FF6FF7A02F1130105F10D0001F180
:1004D000020400F1020300F0EDF94FF4784A02F152
:1004E000080105F1170001F1050400F1010300F016
:1004F000E1F94FF01F0A02F1060105F1170001F1C1
:10050000030400F1000300F0D5F94FF01F0A02F1D7
:100510000C0105F1170001F1030400F1000300F0E4
:10052000C9F94FF6FF7A02F1090105F1050001F161
:10053000030400F1060300F0BDF94FF6FF7A02F163
:10054000070105F10C0001F1070400F1050300F0BB
:10055000B1F94FF4784A02F1090105F10D0001F1FA
:10056000030400F1030300F0A5F9BDE83F843FB5A3
:100570004FF042054FF002004FF018024FF0050116
:1005800000F019F802F13102491E0029F8DA05F1EC
:100590001F05401E0028EFDA3FBD2DE91F444FF034
:1005A000000A1146284601F1220400F1150300F06B
:1005B00081F9BDE81F842DE93F444FF4FC6A02F144
:1005C000000105F1080001F1220400F1070300F029
:1005D00071F94FF4784A02F1010105F1090001F1C6
:1005E000200400F1050300F065F94FF4FC6A02F104
:1005F000020105F1030001F11E0400F1080300F0FF
:1006000059F94FF4FC6A02F1080105F1000001F10B
:10061000130400F1030300F04DF94FF4784A02F19E
:100620000A0105F1050001F1020400F1040300F0E4
:1006300041F94FF4784A02F1170105F1050001F183
:10064000020400F1040300F035F94FF4FC6A02F1F2
:10065000030105F10D0001F1040400F1080300F0AD
:1006600029F94FF4FC6A02F10B0105F10D0001F1CB
:10067000040400F1080300F01DF94FF4FC6A02F1D4
:10068000130105F10D0001F1040400F1080300F06D
:1006900011F94FF4FC6A02F11B0105F10D0001F1A3
:1006A000040400F1080300F005F9BDE83F8407E009
:1006B00004000020060000200C080140080801404A
:1006C0002DE9FF5F784801684FF0FA010160774833
:1006D00001684FF0C801016075484FF000010180CA
:1006E00041808180C18001814181BDE8FF9F2DE96A
:1006F000FF5F6D4D6D4E298830880C4604F115045E
:10070000034603F118034FF0000A00F0D3F8BDE8E8
:10071000FF9F2DE9FF5F644F644E3888358800F1F4
:100720000A0040F22B11884207DAFFF7E0FF024689
:10073000FFF759FE3880BDE8FF9FBDE8FF9F2DE918
:10074000FF5F594F594E388835880A38002807DD31
:10075000FFF7CDFF0246FFF746FE3880BDE8FF9F5A
:10076000BDE8FF9F2DE9FF5FDFF84481B8F8001076
:10077000B8F80220B8F80430B8F80640B8F80850C5
:10078000B8F80A60002910D124B4474F3A8802F122
:100790000A024FF0BE054FF6FF7AFFF702FEA8F8F7
:1007A0000020A8F8065024BC24E0002A10D124B46C
:1007B0003D4F3A8802F10A024FF0BE054FF6FF7A2C
:1007C000FFF7EFFDA8F80220A8F8085024BC11E0BC
:1007D000002B0FD124B4344F3A8802F10A024FF0B3
:1007E000BE054FF6FF7AFFF7DCFDA8F80420A8F855
:1007F0000A5024BCBDE8FF9F2DE9FF5F4FF00000C9
:10080000DFF8AC80B8F80010B8F80220B8F804306F
:10081000B8F80640B8F80850B8F80A60002915D0B2
:1008200024B40A4625464FF0000AFFF7BAFDA5F1A9
:100830000305192D07DD4FF6FF7AFFF7B2FDA8F883
:10084000065024BC02E0A8F8000024BC002A10D006
:100850004FF0000AFFF7A5FDA5F10305192D06DDF0
:100860004FF6FF7AFFF79DFDA8F8085001E0A8F8C1
:100870000200002B15D024B41A4635464FF0000A6A
:10088000FFF78FFDA5F10305192D07DD4FF6FF7A60
:10089000FFF787FDA8F80A5024BC02E0A8F804007E
:1008A00024BCBDE8FF9F00000400002006000020DB
:1008B000080000202DE9FF5F1FB402B408B402BC99
:1008C00008BC00F0CCF81FBC1B1A03F10103641A2A
:1008D00004F1010403FB04F34FF02C0200F023F8B1
:1008E00052464FEA122200F034F8524600F031F836
:1008F0005B1E002BF4DCBDE8FF9F0FB51E490868A6
:100900004FF001034FEA03236FEA030300EA0300F9
:1009100008801A490A70184908684FF0010340EA34
:10092000032008800FBD0FB5134908684FF001037D
:1009300040EA43200880104908684FF001034FEA5D
:10094000C3136FEA030300EA03000880FFF7D5FF33
:100950000FBD0FB5084908684FF0010340EA432076
:100960000880054908684FF0010340EAC310088079
:10097000FFF7C3FF0FBD03E00C0C01400C08014062
:100980000FB56F4908684FF0010340EAC330088093
:1009900000F0B5F86A4908684FF001034FEAC33325
:1009A0006FEA030300EA0300088000F0A8F8644936
:1009B00008684FF0010340EAC330088000F09FF858
:1009C0005F4908684FF0010340EA831008605C4902
:1009D00008684FF0010340EA03200880584908687E
:1009E0004FF0010340EA43200880554908684FF062
:1009F00001034FEA83136FEA030300EA0300086070
:100A00004FF0C502FFF78FFF4FF07F02FFF7A1FF06
:100A10004FF00002FFF79DFF4FF03602FFF783FF14
:100A20004FF00802FFF795FF4FF03A02FFF77BFF08
:100A30004FF05502FFF78DFF4FF01102FFF773FFE4
:100A400000F05DF84FF02902FFF76DFF4FF0200234
:100A5000FFF769FF4FF02C02FFF765FF0FBD1FB5D1
:100A60004FF02A02FFF75FFF02464FEA1222FFF71C
:100A700070FF0246FFF76DFF0A464FEA1222FFF7AA
:100A800068FF0A46FFF765FF4FF02B02FFF74BFFA9
:100A90001A464FEA1222FFF75CFF1A46FFF759FF8A
:100AA00022464FEA1222FFF754FF2246FFF751FF7A
:100AB0004FF02C02FFF737FF1FBD2DE93F44204BBD
:100AC0001C684FF001054FEA85156FEA050504EA39
:100AD00005041C600B4600F1010103F10104FFF75E
:100AE000BEFF4FF02C02FFF71EFF52464FEA1222C4
:100AF000FFF72FFF5246FFF72CFFBDE83F842DE99B
:100B0000FF5F104801380028FCDCBDE8FF9F2DE99D
:100B1000FF5F0C4802380028FCDCBDE8FF9F2DE990
:100B2000FF5F084804380028FCDCBDE8FF9F2DE982
:100B3000FF5F0448B0F57A700028FBDCBDE8FF9F3A
:100B40000C0C01400460560000F01EF84FF000004D
:100B50004FF000014FF0F0034FF4A0744FF0000A83
:100B6000FFF7A8FE2948028842F4706202604FF045
:100B700000004FF000014FF430624FF450634FF427
:100B80006064FFF7A1FBFFE72DE9FF5F00F009F8C4
:100B9000FFF7F6FE1D48026842F470620260BDE88D
:100BA000FF9F07B51A4801684FF0010241EA820130
:100BB000016018484FF03332026017484FF0883216
:100BC000026012484FF47F420260114801684FF002
:100BD000010241EA02110160104801684FF08831BA
:100BE00001600F484FF000010160094801684FF0B3
:100BF000010241EAC20101600A484FF0333101604D
:100C000009484FF03331016007BD00000C08014076
:100C1000181002400008014004080140041001407F
:100C20000C100140000C0140040C01409600DD0056
:100C3000FA00C800000000000000000000000000F2
:04000005080000ED02
:00000001FF
