:020000040800F2
:1000000000060020ED000008F5000008F7000008D9
:10001000F9000008FB000008FD00000800000000D7
:10002000000000000000000000000000FF000008C9
:10003000010100080000000003010008050100089C
:100040000701000807010008070100080701000870
:100050000701000807010008070100080701000860
:100060000701000807010008070100080701000850
:100070000701000807010008070100080701000840
:100080000701000807010008070100080701000830
:100090000701000807010008070100080701000820
:1000A0000701000807010008070100080701000810
:1000B0000701000807010008070100080701000800
:1000C00007010008070100080701000807010008F0
:1000D00007010008070100080701000807010008E0
:1000E00007010008070100080701000809488047C8
:1000F00009480047FEE7FEE7FEE7FEE7FEE7FEE70A
:10010000FEE7FEE7FEE7FEE704480549054A064B21
:100110007047000061020008C902000800000020CA
:1001200000060020000200200002002070477047F7
:100130007047000080B500F001F880BD84B0002059
:100140000390029041F20001C4F20201086840F4F9
:1001500080300860FFE741F20000C4F2020000684E
:1001600000F400300290039801300390FFE70299F9
:100170000020019039B9FFE70398B0F5A06018BFDF
:1001800001200190FFE70198C0070028E3D1FFE7B5
:1001900041F20000C4F2020000688003002803D589
:1001A000FFE70120029002E000200290FFE70298A2
:1001B000012851D1FFE742F20001C4F202010868B0
:1001C00040F010000860086820F007000860086828
:1001D00040F00200086041F20401C4F20201009103
:1001E0000868086008680860086840F48060086073
:1001F000086820F47C100860086840F4E810086083
:1002000041F20001C4F20201086840F08070086009
:10021000FFE741F20000C4F20200006880010028FC
:1002200001D4FFE7F5E741F20401C4F202010868D6
:1002300020F003000860086840F002000860FFE753
:1002400041F20400C4F20200006800F00C0008282B
:1002500001D0FFE7F4E700E0FFE704B070470000DB
:1002600080B541F20002C4F20202106840F00100C1
:10027000106041F20401C4F2020108680023CFF6C5
:10028000FF031840086010684FF6FF73CFF6F6635F
:1002900018401060106820F480201060086820F476
:1002A000FE00086041F20801C4F202014FF41F0091
:1002B0000860FFF73FFF4EF60851CEF200014FF005
:1002C0000060086080BD000000F0D0F900F01CF86C
:1002D00000F076F800F084F84FF082024FF0B40599
:1002E0004FF6FF7A00F056F84FF090024FF00505F8
:1002F0004FF6FF7A00F02EF84FF0A4024FF00505FC
:100300004FF6FF7A00F026F82DE97F444FF02800E1
:1003100000F106034FF004064FF0070101F1140449
:100320004FF00D054FF6E07A022E01D14FF65B7AC1
:1003300000F07CF801F1160104F116046D1E002D89
:10034000F6DA00F1090003F10903761E002EE3DA64
:10035000BDE87F843FB5511C281C11F10A04831CA1
:1003600000F064F8111C681C8C1C10F1140300F0E0
:100370005DF812F10A01681C8C1C10F1140300F0E6
:1003800055F8511C15F1140011F10A04831C00F0FA
:100390004DF83FBD2DE93F44D11E681ECC1DC31C46
:1003A00000F044F8491C401E4C1D431D00F03EF86F
:1003B000491C401ECC1CC31D00F038F8BDE83F842A
:1003C0002DE91F444FF0DD004FF096014FF0E1039F
:1003D00001F12F044FF6FF7A00F028F8BDE81F84E2
:1003E0001FB54FF021004FF000014FF025034FF4EF
:1003F000A0744FF6FF7A00F019F84FF021004FF08B
:1004000000014FF0F0034FF004044FF6FF7A00F0C4
:100410000DF84FF021004FF49E714FF0F0034FF4B0
:10042000A0744FF6FF7A00F001F81FBD2DE9FF5FC1
:100430001FB402B408B402BC08BC00F0C7F81FBC6B
:100440001B1A03F10103641A04F1010403FB04F312
:100450004FF02C0200F023F852464FEA122200F02F
:1004600034F8524600F031F85B1E002BF4DCBDE896
:10047000FF9F0FB5A24908684FF001034FEA03231D
:100480006FEA030300EA030008809E490A709C4952
:1004900008684FF0010340EA032008800FBD0FB544
:1004A000974908684FF0010340EA432008809449C7
:1004B00008684FF001034FEAC3136FEA030300EA31
:1004C00003000880FFF7D5FF0FBD0FB58C49086802
:1004D0004FF0010340EA43200880894908684FF043
:1004E000010340EAC3100880FFF7C3FF0FBD0FB53B
:1004F000834908684FF0010340EAC330088000F0E8
:10050000EDF87F4908684FF001034FEAC3336FEA03
:10051000030300EA0300088000F0E0F87849086867
:100520004FF0010340EAC330088000F0D7F8744967
:1005300008684FF0010340EA8310086070490868BA
:100540004FF0010340EA032008806D4908684FF02E
:10055000010340EA43200880694908684FF001031D
:100560004FEA83136FEA030300EA030008604FF0C9
:10057000C502FFF794FF4FF07F02FFF7A6FF4FF091
:100580000002FFF7A2FF4FF03602FFF788FF4FF09F
:100590000802FFF79AFF4FF03A02FFF780FF4FF093
:1005A0005502FFF792FF4FF01102FFF778FF00F0BE
:1005B00095F84FF02902FFF772FF4FF02002FFF786
:1005C0006EFF4FF02C02FFF76AFF0FBD1FB54FF013
:1005D0002A02FFF764FF02464FEA1222FFF775FF77
:1005E0000246FFF772FF0A464FEA1222FFF76DFF3D
:1005F0000A46FFF76AFF4FF02B02FFF750FF1A463B
:100600004FEA1222FFF761FF1A46FFF75EFF22460C
:100610004FEA1222FFF759FF2246FFF756FF4FF02D
:100620002C02FFF73CFF1FBD2DE93F44344B1C68F3
:100630004FF001054FEA85156FEA050504EA050448
:100640001C600B4600F1010103F10104FFF7BEFF3E
:100650004FF02C02FFF723FF52464FEA1222FFF71A
:1006600034FF5246FFF731FFBDE83F842DE9FF5FBD
:1006700000F004F8FFF73BFFBDE8FF9F07B52248F5
:1006800001684FF0010241EA820101601F484FF00A
:10069000333202601E484FF0333202601A4801685C
:1006A0004FF0010241EA021101601A4801684FF05F
:1006B0008831016018484FF000010160124801685C
:1006C0004FF0010241EAC201016014484FF033319A
:1006D000016013484FF03331016007BD2DE9FF5F22
:1006E000104801380028FCDCBDE8FF9F2DE9FF5FC2
:1006F0000C48B0F57A700028FBDCBDE8FF9F0000D5
:100700000C0C01400C080140181002400008014088
:1007100004080140041001400C100140000C01408D
:08072000040C014004605600C6
:04000005080000ED02
:00000001FF
