:020000040800F2
:1000000008060020ED000008F5000008F7000008D1
:10001000F9000008FB000008FD00000800000000D7
:10002000000000000000000000000000FF000008C9
:10003000010100080000000003010008050100089C
:100040000701000807010008070100080701000870
:100050000701000807010008070100080701000860
:100060000701000807010008070100080701000850
:100070000701000807010008070100080701000840
:100080000701000807010008070100080701000830
:100090000701000807010008070100080701000820
:1000A0000701000807010008070100080701000810
:1000B0000701000807010008070100080701000800
:1000C00007010008070100080701000807010008F0
:1000D00007010008070100080701000807010008E0
:1000E00007010008070100080701000809488047C8
:1000F00009480047FEE7FEE7FEE7FEE7FEE7FEE70A
:10010000FEE7FEE7FEE7FEE704480549054A064B21
:100110007047000061020008890B000808000020F9
:1001200008060020080200200802002070477047DF
:100130007047000080B500F001F880BD84B0002059
:100140000390029041F20001C4F20201086840F4F9
:1001500080300860FFE741F20000C4F2020000684E
:1001600000F400300290039801300390FFE70299F9
:100170000020019039B9FFE70398B0F5A06018BFDF
:1001800001200190FFE70198C0070028E3D1FFE7B5
:1001900041F20000C4F2020000688003002803D589
:1001A000FFE70120029002E000200290FFE70298A2
:1001B000012851D1FFE742F20001C4F202010868B0
:1001C00040F010000860086820F007000860086828
:1001D00040F00200086041F20401C4F20201009103
:1001E0000868086008680860086840F48060086073
:1001F000086820F47C100860086840F4E810086083
:1002000041F20001C4F20201086840F08070086009
:10021000FFE741F20000C4F20200006880010028FC
:1002200001D4FFE7F5E741F20401C4F202010868D6
:1002300020F003000860086840F002000860FFE753
:1002400041F20400C4F20200006800F00C0008282B
:1002500001D0FFE7F4E700E0FFE704B070470000DB
:1002600080B541F20002C4F20202106840F00100C1
:10027000106041F20401C4F2020108680023CFF6C5
:10028000FF031840086010684FF6FF73CFF6F6635F
:1002900018401060106820F480201060086820F476
:1002A000FE00086041F20801C4F202014FF41F0091
:1002B0000860FFF73FFF4EF60851CEF200014FF005
:1002C0000060086080BD00002DE9FF5F00F0C8F805
:1002D00000F038F800F092F800F0D0F84FF0820209
:1002E0004FF0B4054FF6FF7A00F072F84FF090022D
:1002F0004FF005054FF6FF7A00F04AF84FF0A402E0
:100300004FF005054FF6FF7A00F042F86E4802887C
:1003100042F4706202604FF000004FF000014FF4B1
:1003200030624FF450634FF460646848016801F430
:100330007061914200D0E9E700F070F8E6E7FEE76F
:10034000BDE8FF9F2DE97F444FF0280000F1060330
:100350004FF004064FF0070101F114044FF00D05B2
:100360004FF6E07A022E01D14FF65B7A00F0D2FA16
:1003700001F1160104F116046D1E002DF6DA00F1EC
:10038000090003F10903761E002EE3DABDE87F843D
:100390003FB5511C281C11F10A04831C00F0BAFA65
:1003A000111C681C8C1C10F1140300F0B3FA12F13C
:1003B0000A01681C8C1C10F1140300F0ABFA511CEC
:1003C00015F1140011F10A04831C00F0A3FA3FBDDB
:1003D0002DE93F44D11E681ECC1DC31C00F09AFAC3
:1003E000491C401E4C1D431D00F094FA491C401E40
:1003F000CC1CC31D00F08EFABDE83F842DE97F447C
:10040000334D344E2888318800F1040301F12F0464
:100410004FF6FF7A00F07EFABDE87F842DE9FF5F9A
:100420002C4D2B4E288831884FF00007B84215D04C
:1004300000F1040301F12F044FF0000A00F06AFA02
:10044000244D234E288831880A3800F1040301F135
:100450002F044FF6FF7A00F05DFA2880BDE8FF9F79
:100460002DE9FF5F1B4801684FF0960101601848B5
:1004700001684FF0DD010160BDE8FF9F1FB54FF03F
:1004800021004FF000014FF025034FF4A0744FF608
:10049000FF7A00F03FFA4FF021004FF000014FF0DB
:1004A000F0034FF004044FF6FF7A00F033FA4FF0F8
:1004B00021004FF49E714FF0F0034FF4A0744FF6FB
:1004C000FF7A00F027FA1FBD0C0801400808014020
:1004D000020000200000002000F0D8F94FF0000AD0
:1004E0001146284601F5A07400F1F00300F012FA5D
:1004F00000F027F9FFE7E349E34F0A883D8800F061
:100500005CF84FF481724FF0B4054FF6FF7A00F0BB
:1005100032F84FF0B4024FF096054FF4FC6A00F049
:100520000CF84FF028024FF0780500F0CFF900F0FA
:1005300016FB00F014FBF8E7FEE72DE93F444FF00F
:10054000B4024FF096054FF4FC6A02F1000105F188
:10055000000001F1050400F1010300F0DBF902F1F4
:10056000010105F1020001F1030400F1010300F0B3
:10057000D1F9BDE83F842DE93F4402F1010105F1C5
:10058000020001F1030400F1020300F0C3F902F1DB
:10059000020105F1000001F1010400F1050300F082
:1005A000B9F902F1000105F1030001F1050400F1C0
:1005B000000300F0AFF9BDE83F842DE93F444FF65A
:1005C000FF7A02F1030105F1150001F10F0400F1BA
:1005D000010300F09FF94FF6FF7A02F1000105F1E7
:1005E000120001F1150400F1020300F093F94FF03D
:1005F0001F0A02F1000105F1100001F1150400F1DC
:10060000010300F087F94FF01F0A02F1060105F11E
:100610000B0001F1090400F1040300F07BF94FF035
:100620001F0A02F1080105F1040001F1050400F1BF
:10063000060300F06FF94FF4784A02F1090105F161
:10064000000001F1030400F1020300F063F94FF42C
:10065000784A02F1000105F10A0001F1030400F1FA
:10066000050300F057F94FF4784A02F1120105F141
:100670000A0001F1030400F1050300F04BF94FF605
:10068000FF7A02F1000105F10D0001F1020400F111
:10069000020300F03FF94FF6FF7A02F1130105F172
:1006A0000D0001F1020400F1020300F033F94FF4F0
:1006B000784A02F1080105F1170001F1050400F183
:1006C000010300F027F94FF01F0A02F1060105F1BE
:1006D000170001F1030400F1000300F01BF94FF0D3
:1006E0001F0A02F10C0105F1170001F1030400F1EA
:1006F000000300F00FF94FF6FF7A02F1090105F14E
:10070000050001F1030400F1060300F003F94FF6C0
:10071000FF7A02F1070105F10C0001F1070400F175
:10072000050300F0F7F84FF4784A02F1090105F1EA
:100730000D0001F1030400F1030300F0EBF8BDE844
:100740003F843FB54FF029054FF002004FF01802EB
:100750004FF0050100F019F802F13102491E00299D
:10076000F8DA05F11F05401E0028EFDA3FBD2DE93C
:100770001F444FF0000A1146284601F1220400F1FF
:10078000150300F0C7F8BDE81F842DE93F444FF47E
:10079000FC6A02F1000105F1080001F1220400F1F8
:1007A000070300F0B7F84FF4784A02F1010105F1B0
:1007B000090001F1200400F1050300F0ABF84FF44B
:1007C000FC6A02F1020105F1030001F11E0400F1CF
:1007D000080300F09FF84FF4FC6A02F1080105F1EC
:1007E000000001F1130400F1030300F093F84FF44B
:1007F000784A02F10A0105F1050001F1020400F155
:10080000040300F087F84FF4784A02F1170105F16C
:10081000050001F1020400F1040300F07BF84FF43D
:10082000FC6A02F1030105F10D0001F1040400F17D
:10083000080300F06FF84FF4FC6A02F10B0105F1B8
:100840000D0001F1040400F1080300F063F84FF417
:10085000FC6A02F1130105F10D0001F1040400F13D
:10086000080300F057F84FF4FC6A02F11B0105F190
:100870000D0001F1040400F1080300F04BF8BDE89D
:100880003F8403E004000020060000202DE9FF5F04
:100890001E4801684FF0FA0101601D4801684FF0E1
:1008A000C8010160BDE8FF9F2DE9FF5F174D184E9D
:1008B000298830880C4604F11504034603F1180317
:1008C0004FF0000A00F026F8BDE8FF9F2DE9FF5F1A
:1008D0000E4F0F4E38883588FFF7E6FF00F10A000B
:1008E0000246FFF76AFE3880BDE8FF9F2DE9FF5FF3
:1008F000064F074E38883588FFF7D6FFA0F10A006B
:100900000246FFF75AFE3880BDE8FF9F0400002032
:10091000060000202DE9FF5F1FB402B408B402BC3A
:1009200008BC00F0CCF81FBC1B1A03F10103641AC9
:1009300004F1010403FB04F34FF02C0200F023F850
:1009400052464FEA122200F034F8524600F031F8D5
:100950005B1E002BF4DCBDE8FF9F0FB51E49086845
:100960004FF001034FEA03236FEA030300EA030099
:1009700008801A490A70184908684FF0010340EAD4
:10098000032008800FBD0FB5134908684FF001031D
:1009900040EA43200880104908684FF001034FEAFD
:1009A000C3136FEA030300EA03000880FFF7D5FFD3
:1009B0000FBD0FB5084908684FF0010340EA432016
:1009C0000880054908684FF0010340EAC310088019
:1009D000FFF7C3FF0FBD03E00C0C01400C08014002
:1009E0000FB5674908684FF0010340EAC33008803B
:1009F00000F0B5F8624908684FF001034FEAC333CD
:100A00006FEA030300EA0300088000F0A8F85C49DD
:100A100008684FF0010340EAC330088000F09FF8F7
:100A2000574908684FF0010340EA831008605449B1
:100A300008684FF0010340EA032008805049086825
:100A40004FF0010340EA432008804D4908684FF009
:100A500001034FEA83136FEA030300EA030008600F
:100A60004FF0C502FFF78FFF4FF07F02FFF7A1FFA6
:100A70004FF00002FFF79DFF4FF03602FFF783FFB4
:100A80004FF00802FFF795FF4FF03A02FFF77BFFA8
:100A90004FF05502FFF78DFF4FF01102FFF773FF84
:100AA00000F05DF84FF02902FFF76DFF4FF02002D4
:100AB000FFF769FF4FF02C02FFF765FF0FBD1FB571
:100AC0004FF02A02FFF75FFF02464FEA1222FFF7BC
:100AD00070FF0246FFF76DFF0A464FEA1222FFF74A
:100AE00068FF0A46FFF765FF4FF02B02FFF74BFF49
:100AF0001A464FEA1222FFF75CFF1A46FFF759FF2A
:100B000022464FEA1222FFF754FF2246FFF751FF19
:100B10004FF02C02FFF737FF1FBD2DE93F44184B64
:100B20001C684FF001054FEA85156FEA050504EAD8
:100B300005041C600B4600F1010103F10104FFF7FD
:100B4000BEFF4FF02C02FFF71EFF52464FEA122263
:100B5000FFF72FFF5246FFF72CFFBDE83F842DE93A
:100B6000FF5F084801380028FCDCBDE8FF9F2DE945
:100B7000FF5F0448B0F57A700028FBDCBDE8FF9FFA
:100B80000C0C01400460560000F02AF84FF0000001
:100B90004FF000014FF0F0034FF4A0744FF0000A43
:100BA000FFF7B8FE2F48028842F4706202604FF0EF
:100BB00000004FF000014FF430624FF450634FF4E7
:100BC00060642948016801F47061914202D0994241
:100BD00003D0F6E7FFF778FB02E0FFF77DFCFFE7C5
:100BE0002DE9FF5F00F009F8FFF7FAFE1D480268E3
:100BF00042F470620260BDE8FF9F07B51B480168C0
:100C00004FF0010241EA8201016019484FF033328E
:100C1000026018484FF08832026012484FF47F4259
:100C20000260124801684FF0010241EA02110160BE
:100C3000114801684FF08831016010484FF0000101
:100C400001600A4801684FF0010241EAC2010160F7
:100C50000B484FF0333101600A484FF033310160E7
:100C600007BD00000C0801400808014018100240B0
:100C70000008014004080140041001400C1001402C
:100C8000000C0140040C01409600DD00FA00C80091
:04000005080000ED02
:00000001FF
