:020000040800F2
:1000000028060020ED000008F5000008F7000008B1
:10001000F9000008FB000008FD00000800000000D7
:10002000000000000000000000000000FF000008C9
:10003000010100080000000003010008050100089C
:100040000701000807010008070100080701000870
:100050000701000807010008070100080701000860
:100060000701000807010008070100080701000850
:100070000701000807010008070100080701000840
:100080000701000807010008070100080701000830
:100090000701000807010008070100080701000820
:1000A0000701000807010008070100080701000810
:1000B0000701000807010008070100080701000800
:1000C00007010008070100080701000807010008F0
:1000D00007010008070100080701000807010008E0
:1000E00007010008070100080701000809488047C8
:1000F00009480047FEE7FEE7FEE7FEE7FEE7FEE70A
:10010000FEE7FEE7FEE7FEE704480549054A064B21
:100110007047000061020008E9080008280000207C
:10012000280600202802002028020020704770477F
:100130007047000080B500F001F880BD84B0002059
:100140000390029041F20001C4F20201086840F4F9
:1001500080300860FFE741F20000C4F2020000684E
:1001600000F400300290039801300390FFE70299F9
:100170000020019039B9FFE70398B0F5A06018BFDF
:1001800001200190FFE70198C0070028E3D1FFE7B5
:1001900041F20000C4F2020000688003002803D589
:1001A000FFE70120029002E000200290FFE70298A2
:1001B000012851D1FFE742F20001C4F202010868B0
:1001C00040F010000860086820F007000860086828
:1001D00040F00200086041F20401C4F20201009103
:1001E0000868086008680860086840F48060086073
:1001F000086820F47C100860086840F4E810086083
:1002000041F20001C4F20201086840F08070086009
:10021000FFE741F20000C4F20200006880010028FC
:1002200001D4FFE7F5E741F20401C4F202010868D6
:1002300020F003000860086840F002000860FFE753
:1002400041F20400C4F20200006800F00C0008282B
:1002500001D0FFE7F4E700E0FFE704B070470000DB
:1002600080B541F20002C4F20202106840F00100C1
:10027000106041F20401C4F2020108680023CFF6C5
:10028000FF031840086010684FF6FF73CFF6F6635F
:1002900018401060106820F480201060086820F476
:1002A000FE00086041F20801C4F202014FF41F0091
:1002B0000860FFF73FFF4EF60851CEF200014FF005
:1002C0000060086080BD00002DE9FF5F00F041F98B
:1002D00000F0A7F84FF6FF7700F0FFF800F074F990
:1002E0004FF090024FF005054FF6FF7A00F0BFF88F
:1002F0004FF0A4024FF005054FF6FF7A00F0B7F873
:10030000C44D2E88002E14BF013E01262E8020D120
:100310004FF000004FF000014FF430624FF4506393
:100320004FF46064BC48018801F47061914202D0CE
:10033000994207D00DE000F0DFF8B84C26884FF066
:10034000000606E000F0EEF8B44C26884FF00106F7
:10035000FFE7B3480288B34805884FF0000A00F071
:10036000A6F8B0480288B0490B88B04FB7F80080B3
:10037000B8F1010F03D0D72A05DAD2181FE0322ACC
:1003800015DDD21A1BE0AA4D2E8806F12F07A44DC9
:10039000B5F80080464512DC474510DBA34FB7F89F
:1003A00000804FF00108C7F80080D21A07E09F4F85
:1003B000B7F800804FF00008C7F80080D21802801C
:1003C00097490A889B4FB7F80080B8F1010F04D015
:1003D000B2F5997F05DAD21814E0092A0ADDD21A9B
:1003E00010E0944FB7F800804FF00108C7F8008084
:1003F000D21A07E08F4FB7F800804FF00008C7F817
:100400000080D2180A8086480288864805884FF600
:10041000FF7A00F04CF800F05BFA71E7FEE7BDE808
:10042000FF9F2DE97F444FF0280000F106034FF0B5
:1004300004064FF0070101F114044FF00D054FF6CB
:10044000E07A022E01D14FF65B7A00F0FBF801F161
:10045000160104F116046D1E002DF6DA00F10900F4
:1004600003F10903761E002EE3DABDE87F843FB571
:10047000511C281C11F10A04831C00F0E3F8111C24
:10048000681C8C1C10F1140300F0DCF812F10A0156
:10049000681C8C1C10F1140300F0D4F8511C15F1E9
:1004A000140011F10A04831C00F0CCF83FBD2DE9C3
:1004B0003F44D11E681ECC1DC31C00F0C3F8491C6C
:1004C000401E4C1D431D00F0BDF8491C401ECC1CB5
:1004D000C31D00F0B7F8BDE83F842DE9FF44564D39
:1004E000534E2888318800F1040301F12F04BA46E5
:1004F00000F0A8F8BDE8FF842DE9FF5F4E4D4C4E9B
:1005000028883188491F4FF00007B94208DD4FF0B5
:100510000007FFF7E2FF4FF6FF773180FFF7DDFFBF
:10052000BDE8FF9F2DE9FF5F434D414E288831888C
:1005300001F105014FF48777B94208DA4FF000075F
:10054000FFF7CBFF4FF6FF773180FFF7C6FFBDE81F
:10055000FF9F2DE9FF5F364801684FF0960101606B
:10056000354801684FF0DD0101602D4801684FF00A
:10057000A00101602B4801684FF0320101602F4853
:1005800001684FF001010160274801684FF0010147
:100590000160284801684FF00001016023480168AC
:1005A0004FF0000101601B4801684FF0000101603D
:1005B0001A4801684FF000010160214801684FF0BE
:1005C00000010160BDE8FF9F1FB54FF021004FF013
:1005D00000014FF025034FF4A0744FF6FF7A00F0AE
:1005E00031F84FF021004FF000014FF0F0034FF0D1
:1005F00004044FF6FF7A00F025F84FF021004FF485
:100600009E714FF0F0034FF4A0744FF6FF7A00F0A4
:1006100019F81FBD10000020080801401400002038
:1006200004000020060000200A0000200E00002028
:10063000000000200C000020020000200800002024
:10064000120000202DE9FF5F1FB402B408B402BC01
:1006500008BC00F0CCF81FBC1B1A03F10103641A9C
:1006600004F1010403FB04F34FF02C0200F023F823
:1006700052464FEA122200F034F8524600F031F8A8
:100680005B1E002BF4DCBDE8FF9F0FB51E49086818
:100690004FF001034FEA03236FEA030300EA03006C
:1006A00008801A490A70184908684FF0010340EAA7
:1006B000032008800FBD0FB5134908684FF00103F0
:1006C00040EA43200880104908684FF001034FEAD0
:1006D000C3136FEA030300EA03000880FFF7D5FFA6
:1006E0000FBD0FB5084908684FF0010340EA4320E9
:1006F0000880054908684FF0010340EAC3100880EC
:10070000FFF7C3FF0FBD03E00C0C01400C080140D4
:100710000FB5734908684FF0010340EAC330088001
:1007200000F0B5F86E4908684FF001034FEAC33393
:100730006FEA030300EA0300088000F0A8F86849A4
:1007400008684FF0010340EAC330088000F09FF8CA
:10075000634908684FF0010340EA8310086060496C
:1007600008684FF0010340EA032008805C490868EC
:100770004FF0010340EA43200880594908684FF0D0
:1007800001034FEA83136FEA030300EA03000860E2
:100790004FF0C502FFF78FFF4FF07F02FFF7A1FF79
:1007A0004FF00002FFF79DFF4FF03602FFF783FF87
:1007B0004FF00802FFF795FF4FF03A02FFF77BFF7B
:1007C0004FF05502FFF78DFF4FF01102FFF773FF57
:1007D00000F05DF84FF02902FFF76DFF4FF02002A7
:1007E000FFF769FF4FF02C02FFF765FF0FBD1FB544
:1007F0004FF02A02FFF75FFF02464FEA1222FFF78F
:1008000070FF0246FFF76DFF0A464FEA1222FFF71C
:1008100068FF0A46FFF765FF4FF02B02FFF74BFF1B
:100820001A464FEA1222FFF75CFF1A46FFF759FFFC
:1008300022464FEA1222FFF754FF2246FFF751FFEC
:100840004FF02C02FFF737FF1FBD2DE93F44244B2B
:100850001C684FF001054FEA85156FEA050504EAAB
:1008600005041C600B4600F1010103F10104FFF7D0
:10087000BEFF4FF02C02FFF71EFF52464FEA122236
:10088000FFF72FFF5246FFF72CFFBDE83F842DE90D
:10089000FF5F144801380028FCDCBDE8FF9F2DE90C
:1008A000FF5F104802380028FCDCBDE8FF9F2DE9FF
:1008B000FF5F0C4804380028FCDCBDE8FF9F2DE9F1
:1008C000FF5F0848B0F57A700028FBDCBDE8FF9FA9
:1008D0002DE9FF5F034864380028FCDCBDE8FF9F7A
:1008E0000C0C01400460560000F01EF84FF00000B0
:1008F0004FF000014FF0F0034FF4A0744FF0000AE6
:10090000FFF7A0FE2948028842F4706202604FF0AF
:1009100000004FF000014FF430624FF450634FF489
:100920006064FFF7D1FCFFE72DE9FF5F00F009F8F5
:10093000FFF7EEFE1D48026842F470620260BDE8F7
:10094000FF9F07B51A4801684FF0010241EA820192
:10095000016018484FF03332026017484FF0883278
:10096000026012484FF47F420260114801684FF064
:10097000010241EA02110160104801684FF088311C
:1009800001600F484FF000010160094801684FF015
:10099000010241EAC20101600A484FF033310160AF
:1009A00009484FF03331016007BD00000C080140D9
:1009B00018100240000801400408014004100140E2
:1009C0000C100140000C0140040C01409600DD00B9
:1009D000A000320001000100000000000000000043
:1009E0000000FA00C8000000000000000000000045
:0409F0000000000003
:04000005080000ED02
:00000001FF
