:020000040800F2
:1000000040070020ED000008F5000008F700000898
:10001000F9000008FB000008FD00000800000000D7
:10002000000000000000000000000000FF000008C9
:10003000010100080000000003010008050100089C
:100040000701000807010008070100080701000870
:100050000701000807010008070100080701000860
:100060000701000807010008070100080701000850
:100070000701000807010008070100080701000840
:100080000701000807010008070100080701000830
:100090000701000807010008070100080701000820
:1000A0000701000807010008070100080701000810
:1000B0000701000807010008070100080701000800
:1000C00007010008070100080701000807010008F0
:1000D00007010008070100080701000807010008E0
:1000E00007010008070100080701000809488047C8
:1000F00009480047FEE7FEE7FEE7FEE7FEE7FEE70A
:10010000FEE7FEE7FEE7FEE704480549054A064B21
:1001100070470000610200089109000840010020BA
:100120004007002040030020400300207047704734
:100130007047000080B500F001F880BD84B0002059
:100140000390029041F20001C4F20201086840F4F9
:1001500080300860FFE741F20000C4F2020000684E
:1001600000F400300290039801300390FFE70299F9
:100170000020019039B9FFE70398B0F5A06018BFDF
:1001800001200190FFE70198C0070028E3D1FFE7B5
:1001900041F20000C4F2020000688003002803D589
:1001A000FFE70120029002E000200290FFE70298A2
:1001B000012851D1FFE742F20001C4F202010868B0
:1001C00040F010000860086820F007000860086828
:1001D00040F00200086041F20401C4F20201009103
:1001E0000868086008680860086840F48060086073
:1001F000086820F47C100860086840F4E810086083
:1002000041F20001C4F20201086840F08070086009
:10021000FFE741F20000C4F20200006880010028FC
:1002200001D4FFE7F5E741F20401C4F202010868D6
:1002300020F003000860086840F002000860FFE753
:1002400041F20400C4F20200006800F00C0008282B
:1002500001D0FFE7F4E700E0FFE704B070470000DB
:1002600080B541F20002C4F20202106840F00100C1
:10027000106041F20401C4F2020108680023CFF6C5
:10028000FF031840086010684FF6FF73CFF6F6635F
:1002900018401060106820F480201060086820F476
:1002A000FE00086041F20801C4F202014FF41F0091
:1002B0000860FFF73FFF4EF60851CEF200014FF005
:1002C0000060086080BD00002DE9FF5F00F08AF942
:1002D00000F0D3F84FF6FF7700F048F900F0C2F9CC
:1002E0004FF090024FF005054FF6FF7A00F008F945
:1002F0004FF0A4024FF005054FF6FF7A00F000F929
:10030000EB4D2E88002E14BF013E01262E8020D1F9
:100310004FF000004FF000014FF430624FF4506393
:100320004FF46064E348018801F47061914202D0A7
:10033000994207D00DE000F028F9DF4C26884FF0F5
:10034000000606E000F037F9DB4C26884FF0010686
:10035000FFE7DA480288DA4805884FF0000A00F023
:10036000EFF8D7480288D7490B88D74FB7F80080F5
:10037000B8F1010F03D0D72A05DAD21824E02B2ACE
:100380001ADDD21A20E0D14D2E8806F12F07CB4D71
:10039000B5F80080464517DC474515DBCA4FB7F86E
:1003A00000804FF00108A7F80080D21AC04D2E68D7
:1003B000012E08BF521E07E0C34FB7F800804FF070
:1003C0000008A7F80080D218BD48028024E0BB498D
:1003D0000A88BF4FB7F80080B8F1010F04D0B2F51A
:1003E000997F05DAD21814E0092A0ADDD21A10E042
:1003F000B74FB7F800804FF00108A7F80080D21A75
:1004000007E0B34FB7F800804FF00008A7F800806E
:10041000D2180A804FF0000AA84C2588A84E3788C9
:10042000AC4A34F80A10002913D0AB4B33F80A0059
:1004300001F1140800F10609A94210DCA8450EDB01
:10044000B9450CDCB8420ADB00F052F84FF000016D
:1004500008800AF1010ABAF1460F00D0DCE797489C
:100460000288974805884FF6FF7A00F069F800F097
:1004700083FA45E7FEE7BDE8FF9F2DE9FF5F4FF0F8
:10048000280000F106034FF00406924FDFF848926F
:100490004FF000084FF0070101F114044FF00D0573
:1004A0004FF6E07A022E01D14FF4784A27F808106F
:1004B00029F8080008F1020800F018F901F1160106
:1004C00004F116046D1E002DF0DA00F1090003F1AD
:1004D0000903761E002EDDDABDE8FF9F2DE9FF5FE0
:1004E00000F1060301F1140400F000F9BDE8FF9FDC
:1004F0002DE9FF5F4FF0000AFFF7F0FFBDE8FF9F17
:100500003FB5511C281C11F10A04831C00F0EEF8C1
:10051000111C681C8C1C10F1140300F0E7F812F198
:100520000A01681C8C1C10F1140300F0DFF8511C48
:1005300015F1140011F10A04831C00F0D7F83FBD37
:100540002DE93F44D11E681ECC1DC31C00F0CEF81F
:10055000491C401E4C1D431D00F0C8F8491C401E9C
:10056000CC1CC31D00F0C2F8BDE83F842DE9FF4458
:100570005A4D564E2888318800F1040301F12F04AA
:10058000BA4600F0B3F8BDE8FF842DE9FF5F534D94
:100590004E4E28883188491F4FF00007B94208DDC8
:1005A0004FF00007FFF7E2FF4FF6FF773180FFF7CC
:1005B000DDFFBDE8FF9F2DE9FF5F484D434E2888D2
:1005C000318801F105014FF48777B94208DA4FF01D
:1005D0000007FFF7CBFF4FF6FF773180FFF7C6FF2D
:1005E000BDE8FF9F2DE9FF5F384801684FF0960195
:1005F00001803A4801684FF0DD0101802F48016811
:100600004FF0A00101802E4801684FF06E0101807B
:10061000334801684FF0010101802A4801684FF01A
:10062000010101802A4801684FF00001018026483D
:1006300001684FF0000101801D4801684FF0000182
:1006400001801D4801684FF00001018025480168C4
:100650004FF000010180244801684FF00001018043
:10066000BDE8FF9F1FB54FF021004FF000014FF094
:1006700025034FF4A0744FF6FF7A00F037F84FF0DF
:1006800021004FF000014FF0F0034FF004044FF64B
:10069000FF7A00F02BF84FF021004FF49E714FF0DD
:1006A000F0034FF4A0744FF6FF7A00F01FF81FBD5F
:1006B0001000002008080140140000200400002061
:1006C000060000200A0000200E000020000000208C
:1006D0000C00002026000020B200002002000020B4
:1006E00008000020120000203E0100202DE9FF5FDD
:1006F0001FB402B408B402BC08BC00F0CCF81FBCA4
:100700001B1A03F10103641A04F1010403FB04F34F
:100710004FF02C0200F023F852464FEA122200F06C
:1007200034F8524600F031F85B1E002BF4DCBDE8D3
:10073000FF9F0FB51E4908684FF001034FEA0323DE
:100740006FEA030300EA030008801A490A70184997
:1007500008684FF0010340EA032008800FBD0FB581
:10076000134908684FF0010340EA4320088010490C
:1007700008684FF001034FEAC3136FEA030300EA6E
:1007800003000880FFF7D5FF0FBD0FB508490868C3
:100790004FF0010340EA43200880054908684FF004
:1007A000010340EAC3100880FFF7C3FF0FBD03E059
:1007B0000C0C01400C0801400FB5734908684FF05C
:1007C000010340EAC330088000F0B5F86E490868BC
:1007D0004FF001034FEAC3336FEA030300EA03005B
:1007E000088000F0A8F8684908684FF0010340EA63
:1007F000C330088000F09FF8634908684FF0010398
:1008000040EA83100860604908684FF0010340EA3D
:10081000032008805C4908684FF0010340EA432048
:100820000880594908684FF001034FEA83136FEAC3
:10083000030300EA030008604FF0C502FFF78FFFD3
:100840004FF07F02FFF7A1FF4FF00002FFF79DFF7F
:100850004FF03602FFF783FF4FF00802FFF795FFD6
:100860004FF03A02FFF77BFF4FF05502FFF78DFF85
:100870004FF01102FFF773FF00F05DF84FF029020F
:10088000FFF76DFF4FF02002FFF769FF4FF02C02DA
:10089000FFF765FF0FBD1FB54FF02A02FFF75FFF9F
:1008A00002464FEA1222FFF770FF0246FFF76DFF84
:1008B0000A464FEA1222FFF768FF0A46FFF765FF74
:1008C0004FF02B02FFF74BFF1A464FEA1222FFF7B9
:1008D0005CFF1A46FFF759FF22464FEA1222FFF744
:1008E00054FF2246FFF751FF4FF02C02FFF737FF6E
:1008F0001FBD2DE93F44244B1C684FF001054FEA12
:1009000085156FEA050504EA05041C600B4600F135
:10091000010103F10104FFF7BEFF4FF02C02FFF7C6
:100920001EFF52464FEA1222FFF72FFF5246FFF7F3
:100930002CFFBDE83F842DE9FF5F144801380028F3
:10094000FCDCBDE8FF9F2DE9FF5F1048023800285E
:10095000FCDCBDE8FF9F2DE9FF5F0C480438002850
:10096000FCDCBDE8FF9F2DE9FF5F0848B0F57A7019
:100970000028FBDCBDE8FF9F2DE9FF5F03486438DA
:100980000028FCDCBDE8FF9F0C0C01400460560011
:1009900000F01EF84FF000004FF000014FF0F003A0
:1009A0004FF4A0744FF0000AFFF7A0FE2948028818
:1009B00042F4706202604FF000004FF000014FF40B
:1009C00030624FF450634FF46064FFF77DFCFFE743
:1009D0002DE9FF5F00F009F8FFF7EEFE1D48026801
:1009E00042F470620260BDE8FF9F07B51A480168D3
:1009F0004FF0010241EA8201016018484FF03332A2
:100A0000026017484FF08832026012484FF47F426C
:100A10000260114801684FF0010241EA02110160D1
:100A2000104801684FF0883101600F484FF0000115
:100A30000160094801684FF0010241EAC20101600A
:100A40000A484FF03331016009484FF033310160FB
:100A500007BD00000C0801401810024000080140CA
:100A600004080140041001400C100140000C01403A
:100A7000040C01409600DD00A0006E0001000100A2
:100A800000000000000000000000FA00C8000000A4
:100A90000000000000000000000000000000000056
:100AA0000000000000000000000000000000000046
:100AB0000000000000000000000000000000000036
:100AC0000000000000000000000000000000000026
:100AD0000000000000000000000000000000000016
:100AE0000000000000000000000000000000000006
:100AF00000000000000000000000000000000000F6
:100B000000000000000000000000000000000000E5
:100B100000000000000000000000000000000000D5
:100B200000000000000000000000000000000000C5
:100B300000000000000000000000000000000000B5
:100B400000000000000000000000000000000000A5
:100B50000000000000000000000000000000000095
:100B60000000000000000000000000000000000085
:100B70000000000000000000000000000000000075
:100B80000000000000000000000000000000000065
:100B90000000000000000000000000000000000055
:100BA0000000000000000000000000000000000045
:040BB0000000000041
:04000005080000ED02
:00000001FF
