:020000040800F2
:1000000008060020ED000008F5000008F7000008D1
:10001000F9000008FB000008FD00000800000000D7
:10002000000000000000000000000000FF000008C9
:10003000010100080000000003010008050100089C
:100040000701000807010008070100080701000870
:100050000701000807010008070100080701000860
:100060000701000807010008070100080701000850
:100070000701000807010008070100080701000840
:100080000701000807010008070100080701000830
:100090000701000807010008070100080701000820
:1000A0000701000807010008070100080701000810
:1000B0000701000807010008070100080701000800
:1000C00007010008070100080701000807010008F0
:1000D00007010008070100080701000807010008E0
:1000E00007010008070100080701000809488047C8
:1000F00009480047FEE7FEE7FEE7FEE7FEE7FEE70A
:10010000FEE7FEE7FEE7FEE704480549054A064B21
:1001100070470000610200088907000808000020FD
:1001200008060020080200200802002070477047DF
:100130007047000080B500F001F880BD84B0002059
:100140000390029041F20001C4F20201086840F4F9
:1001500080300860FFE741F20000C4F2020000684E
:1001600000F400300290039801300390FFE70299F9
:100170000020019039B9FFE70398B0F5A06018BFDF
:1001800001200190FFE70198C0070028E3D1FFE7B5
:1001900041F20000C4F2020000688003002803D589
:1001A000FFE70120029002E000200290FFE70298A2
:1001B000012851D1FFE742F20001C4F202010868B0
:1001C00040F010000860086820F007000860086828
:1001D00040F00200086041F20401C4F20201009103
:1001E0000868086008680860086840F48060086073
:1001F000086820F47C100860086840F4E810086083
:1002000041F20001C4F20201086840F08070086009
:10021000FFE741F20000C4F20200006880010028FC
:1002200001D4FFE7F5E741F20401C4F202010868D6
:1002300020F003000860086840F002000860FFE753
:1002400041F20400C4F20200006800F00C0008282B
:1002500001D0FFE7F4E700E0FFE704B070470000DB
:1002600080B541F20002C4F20202106840F00100C1
:10027000106041F20401C4F2020108680023CFF6C5
:10028000FF031840086010684FF6FF73CFF6F6635F
:1002900018401060106820F480201060086820F476
:1002A000FE00086041F20801C4F202014FF41F0091
:1002B0000860FFF73FFF4EF60851CEF200014FF005
:1002C0000060086080BD00002DE9FF5F00F0D8F8F5
:1002D00000F03EF84FF6FF7700F096F800F0DEF8F9
:1002E0004FF082024FF0B4054FF6FF7A00F076F837
:1002F0004FF090024FF005054FF6FF7A00F04EF8F0
:100300004FF0A4024FF005054FF6FF7A00F046F8D3
:100310004FF000004FF000014FF430624FF4506393
:100320004FF460647048016801F47061914202D03A
:10033000994205D0ECE700F076F800F010FAE7E714
:1003400000F087F800F00BFAE2E7FEE7BDE8FF9F58
:100350002DE97F444FF0280000F106034FF004061A
:100360004FF0070101F114044FF00D054FF6E07A4C
:10037000022E01D14FF65B7A00F0BCF801F11601B4
:1003800004F116046D1E002DF6DA00F1090003F1E8
:100390000903761E002EE3DABDE87F843FB5511CC9
:1003A000281C11F10A04831C00F0A4F8111C681C1D
:1003B0008C1C10F1140300F09DF812F10A01681C66
:1003C0008C1C10F1140300F095F8511C15F1140069
:1003D00011F10A04831C00F08DF83FBD2DE93F4464
:1003E000D11E681ECC1DC31C00F084F8491C401EA1
:1003F0004C1D431D00F07EF8491C401ECC1CC31D43
:1004000000F078F8BDE83F842DE9FF44374D384EC1
:100410002888318800F1040301F12F04BA4600F066
:1004200069F8BDE8FF842DE9FF5F304D304E288824
:1004300031880A394FF00007B94208DD4FF0000754
:10044000FFF7E2FF4FF6FF773180FFF7DDFFBDE8F2
:10045000FF9F2DE9FF5F254D254E2888318801F14A
:100460000A0140F20D17B94208DA4FF00007FFF712
:10047000CBFF4FF6FF773180FFF7C6FFBDE8FF9F48
:100480002DE9FF5F1A4801684FF096010160174897
:1004900001684FF0DD010160BDE8FF9F1FB54FF01F
:1004A00021004FF000014FF025034FF4A0744FF6E8
:1004B000FF7A00F01FF84FF021004FF000014FF0DD
:1004C000F0034FF004044FF6FF7A00F013F84FF0FA
:1004D00021004FF49E714FF0F0034FF4A0744FF6DB
:1004E000FF7A00F007F81FBD080801400200002055
:1004F000000000202DE9FF5F1FB402B408B402BC65
:1005000008BC00F0CCF81FBC1B1A03F10103641AED
:1005100004F1010403FB04F34FF02C0200F023F874
:1005200052464FEA122200F034F8524600F031F8F9
:100530005B1E002BF4DCBDE8FF9F0FB51E49086869
:100540004FF001034FEA03236FEA030300EA0300BD
:1005500008801A490A70184908684FF0010340EAF8
:10056000032008800FBD0FB5134908684FF0010341
:1005700040EA43200880104908684FF001034FEA21
:10058000C3136FEA030300EA03000880FFF7D5FFF7
:100590000FBD0FB5084908684FF0010340EA43203A
:1005A0000880054908684FF0010340EAC31008803D
:1005B000FFF7C3FF0FBD03E00C0C01400C08014026
:1005C0000FB56F4908684FF0010340EAC330088057
:1005D00000F0B5F86A4908684FF001034FEAC333E9
:1005E0006FEA030300EA0300088000F0A8F86449FA
:1005F00008684FF0010340EAC330088000F09FF81C
:100600005F4908684FF0010340EA831008605C49C5
:1006100008684FF0010340EA032008805849086841
:100620004FF0010340EA43200880554908684FF025
:1006300001034FEA83136FEA030300EA0300086033
:100640004FF0C502FFF78FFF4FF07F02FFF7A1FFCA
:100650004FF00002FFF79DFF4FF03602FFF783FFD8
:100660004FF00802FFF795FF4FF03A02FFF77BFFCC
:100670004FF05502FFF78DFF4FF01102FFF773FFA8
:1006800000F05DF84FF02902FFF76DFF4FF02002F8
:10069000FFF769FF4FF02C02FFF765FF0FBD1FB595
:1006A0004FF02A02FFF75FFF02464FEA1222FFF7E0
:1006B00070FF0246FFF76DFF0A464FEA1222FFF76E
:1006C00068FF0A46FFF765FF4FF02B02FFF74BFF6D
:1006D0001A464FEA1222FFF75CFF1A46FFF759FF4E
:1006E00022464FEA1222FFF754FF2246FFF751FF3E
:1006F0004FF02C02FFF737FF1FBD2DE93F44204B81
:100700001C684FF001054FEA85156FEA050504EAFC
:1007100005041C600B4600F1010103F10104FFF721
:10072000BEFF4FF02C02FFF71EFF52464FEA122287
:10073000FFF72FFF5246FFF72CFFBDE83F842DE95E
:10074000FF5F104801380028FCDCBDE8FF9F2DE961
:10075000FF5F0C4802380028FCDCBDE8FF9F2DE954
:10076000FF5F084804380028FCDCBDE8FF9F2DE946
:10077000FF5F0448B0F57A700028FBDCBDE8FF9FFE
:100780000C0C01400460560000F01EF84FF0000011
:100790004FF000014FF0F0034FF4A0744FF0000A47
:1007A000FFF7A8FE2948028842F4706202604FF009
:1007B00000004FF000014FF430624FF450634FF4EB
:1007C0006064FFF781FDFFE72DE9FF5F00F009F8A6
:1007D000FFF7F6FE1D48026842F470620260BDE851
:1007E000FF9F07B51A4801684FF0010241EA8201F4
:1007F000016018484FF03332026017484FF08832DA
:10080000026012484FF47F420260114801684FF0C5
:10081000010241EA02110160104801684FF088317D
:1008200001600F484FF000010160094801684FF076
:10083000010241EAC20101600A484FF03331016010
:1008400009484FF03331016007BD00000C0801403A
:100850001810024000080140040801400410014043
:100860000C100140000C0140040C01409600DD001A
:04000005080000ED02
:00000001FF
