:020000040800F2
:1000000060060020ED000008F5000008F700000879
:10001000F9000008FB000008FD00000800000000D7
:10002000000000000000000000000000FF000008C9
:10003000010100080000000003010008050100089C
:100040000701000807010008070100080701000870
:100050000701000807010008070100080701000860
:100060000701000807010008070100080701000850
:100070000701000807010008070100080701000840
:100080000701000807010008070100080701000830
:100090000701000807010008070100080701000820
:1000A0000701000807010008070100080701000810
:1000B0000701000807010008070100080701000800
:1000C00007010008070100080701000807010008F0
:1000D00007010008070100080701000807010008E0
:1000E00007010008070100080701000809488047C8
:1000F00009480047FEE7FEE7FEE7FEE7FEE7FEE70A
:10010000FEE7FEE7FEE7FEE704480549054A064B21
:100110007047000061020008B50B00086000002075
:1001200060060020600200206002002070477047D7
:100130007047000080B500F001F880BD84B0002059
:100140000390029041F20001C4F20201086840F4F9
:1001500080300860FFE741F20000C4F2020000684E
:1001600000F400300290039801300390FFE70299F9
:100170000020019039B9FFE70398B0F5A06018BFDF
:1001800001200190FFE70198C0070028E3D1FFE7B5
:1001900041F20000C4F2020000688003002803D589
:1001A000FFE70120029002E000200290FFE70298A2
:1001B000012851D1FFE742F20001C4F202010868B0
:1001C00040F010000860086820F007000860086828
:1001D00040F00200086041F20401C4F20201009103
:1001E0000868086008680860086840F48060086073
:1001F000086820F47C100860086840F4E810086083
:1002000041F20001C4F20201086840F08070086009
:10021000FFE741F20000C4F20200006880010028FC
:1002200001D4FFE7F5E741F20401C4F202010868D6
:1002300020F003000860086840F002000860FFE753
:1002400041F20400C4F20200006800F00C0008282B
:1002500001D0FFE7F4E700E0FFE704B070470000DB
:1002600080B541F20002C4F20202106840F00100C1
:10027000106041F20401C4F2020108680023CFF6C5
:10028000FF031840086010684FF6FF73CFF6F6635F
:1002900018401060106820F480201060086820F476
:1002A000FE00086041F20801C4F202014FF41F0091
:1002B0000860FFF73FFF4EF60851CEF200014FF005
:1002C0000060086080BD000000F01AFA4FF0000ADC
:1002D0001146284601F5A07400F1F00300F018FB68
:1002E00000F05CF92749284F0A883D8800F092F811
:1002F0004FF0B4024FF096054FF4FC6A00F04AF854
:100300004FF028024FF078052048028842F47062CE
:1003100002801E48028842F4706202804FF00000A2
:100320004FF000014FF430624FF450634FF46064BB
:100330001748016801F47061914206D0994207D0D4
:10034000A14208D04FF0000B0CE000F026FA09E0C3
:1003500000F00DFA06E0BBF1010F03D04FF0010BE6
:1003600000F02EFA00F076FA00F018FC00F016FC0F
:1003700000F014FC00F012FCCBE7FEE7BDE8FF9FA5
:1003800008E0000004000020060000200C080140E6
:10039000080801402DE93F444FF0B4024FF09605A4
:1003A0004FF4FC6A02F1000105F1000001F10504BF
:1003B00000F1010300F0ACFA02F1010105F10200C5
:1003C00001F1030400F1010300F0A2FABDE83F844B
:1003D0002DE93F4402F1010105F1020001F103049E
:1003E00000F1020300F094FA02F1020105F10000AD
:1003F00001F1010400F1050300F08AFA02F10001A5
:1004000005F1030001F1050400F1000300F080FA9A
:10041000BDE83F842DE93F444FF6FF7A02F1030126
:1004200005F1150001F10F0400F1010300F070FA6D
:100430004FF6FF7A02F1000105F1120001F11504F7
:1004400000F1020300F064FA4FF01F0A02F100010C
:1004500005F1100001F1150400F1010300F058FA54
:100460004FF01F0A02F1060105F10B0001F109042A
:1004700000F1040300F04CFA4FF01F0A02F10801EA
:1004800005F1040001F1050400F1060300F040FA53
:100490004FF4784A02F1090105F1000001F103046B
:1004A00000F1020300F034FA4FF4784A02F100013F
:1004B00005F10A0001F1030400F1050300F028FA38
:1004C0004FF4784A02F1120105F10A0001F1030428
:1004D00000F1050300F01CFA4FF6FF7A02F100016B
:1004E00005F10D0001F1020400F1020300F010FA21
:1004F0004FF6FF7A02F1130105F10D0001F102043C
:1005000000F1020300F004FA4FF4784A02F1080106
:1005100005F1170001F1050400F1010300F0F8F9FD
:100520004FF01F0A02F1060105F1170001F1030463
:1005300000F1000300F0ECF94FF01F0A02F10C018A
:1005400005F1170001F1030400F1000300F0E0F9E8
:100550004FF6FF7A02F1090105F1050001F10304EC
:1005600000F1060300F0D4F94FF6FF7A02F107011B
:1005700005F10C0001F1070400F1050300F0C8F9D2
:100580004FF4784A02F1090105F10D0001F103046D
:1005900000F1030300F0BCF9BDE83F842DE9FF5FE3
:1005A000554B564C4FF000064FF042054FF00200FD
:1005B0004FF018024FF0050100F020F89A53A553B0
:1005C00033F806C006F1020602F13102491E002985
:1005D000F2DA05F11F05401E0028E9DABDE8FF9FA9
:1005E0002DE91F444FF0000A1146284601F122046C
:1005F00000F1150300F08CF9BDE81F842DE93F449C
:100600004FF4FC6A02F1000105F1080001F1220437
:1006100000F1070300F07CF94FF4784A02F1010180
:1006200005F1090001F1200400F1050300F070F963
:100630004FF4FC6A02F1020105F1030001F11E040E
:1006400000F1080300F064F94FF4FC6A02F10801BC
:1006500005F1000001F1130400F1030300F058F963
:100660004FF4784A02F10A0105F1050001F1020494
:1006700000F1040300F04CF94FF4784A02F117013D
:1006800005F1050001F1020400F1040300F040F956
:100690004FF4FC6A02F1030105F10D0001F10404BD
:1006A00000F1080300F034F94FF4FC6A02F10B0189
:1006B00005F10D0001F1040400F1080300F028F930
:1006C0004FF4FC6A02F1130105F10D0001F104047D
:1006D00000F1080300F01CF94FF4FC6A02F11B0161
:1006E00005F10D0001F1040400F1080300F010F918
:1006F000BDE83F8404E00000140000203800002022
:100700002DE9FF5F7F4801684FF0FA0101607E48E4
:1007100001684FF0C80101607C484FF00001018082
:1007200041808180C18001814181BDE8FF9F2DE929
:10073000FF5F744D744E298830880C4604F115040F
:10074000034603F118034FF0000A00F0E1F8BDE89A
:10075000FF9F2DE9FF5F0C4604F13104034603F1CE
:100760001F034FF0000A00F0D3F8BDE8FF9F2DE90A
:10077000FF5F644F644E3888358800F10A0040F20C
:100780002B11884207DAFFF7D2FF0246FFF742FE3D
:100790003880BDE8FF9FBDE8FF9F2DE9FF5F594FFF
:1007A000594E388835880A38002807DDFFF7BFFF23
:1007B0000246FFF72FFE3880BDE8FF9FBDE8FF9F90
:1007C0002DE9FF5FDFF84481B8F80010B8F8022087
:1007D000B8F80430B8F80640B8F80850B8F80A601D
:1007E000002910D124B4474F3A8802F10A024FF091
:1007F000BE054FF6FF7AFFF7EBFDA8F80020A8F83A
:10080000065024BC24E0002A10D124B43D4F3A887D
:1008100002F10A024FF0BE054FF6FF7AFFF7D8FD4E
:10082000A8F80220A8F8085024BC11E0002B0FD132
:1008300024B4344F3A8802F10A024FF0BE054FF655
:10084000FF7AFFF7C5FDA8F80420A8F80A5024BCD9
:10085000BDE8FF9F2DE9FF5F4FF00000DFF8AC809F
:10086000B8F80010B8F80220B8F80430B8F806401C
:10087000B8F80850B8F80A60002915D024B40A4620
:1008800025464FF0000AFFF7A3FDA5F10305192D3A
:1008900007DD4FF6FF7AFFF79BFDA8F8065024BC52
:1008A00002E0A8F8000024BC002A10D04FF0000A93
:1008B000FFF78EFDA5F10305192D06DD4FF6FF7A32
:1008C000FFF786FDA8F8085001E0A8F80200002B09
:1008D00015D024B41A4635464FF0000AFFF778FDCC
:1008E000A5F10305192D07DD4FF6FF7AFFF770FD1F
:1008F000A8F80A5024BC02E0A8F8040024BCBDE813
:10090000FF9F0000040000200600002008000020D7
:100910002DE9FF5F1FB402B408B402BC08BC00F0AC
:10092000CCF81FBC1B1A03F10103641A04F1010483
:1009300003FB04F34FF02C0200F023F852464FEA79
:10094000122200F034F8524600F031F85B1E002B02
:10095000F4DCBDE8FF9F0FB51E4908684FF00103A6
:100960004FEA03236FEA030300EA030008801A49F1
:100970000A70184908684FF0010340EA0320088014
:100980000FBD0FB5134908684FF0010340EA43203B
:100990000880104908684FF001034FEAC3136FEA5B
:1009A000030300EA03000880FFF7D5FF0FBD0FB572
:1009B000084908684FF0010340EA432008800549D0
:1009C00008684FF0010340EAC3100880FFF7C3FF37
:1009D0000FBD03E00C0C01400C0801400FB573493A
:1009E00008684FF0010340EAC330088000F0B5F812
:1009F0006E4908684FF001034FEAC3336FEA0303FF
:100A000000EA0300088000F0A8F8684908684FF081
:100A1000010340EAC330088000F09FF8634908688A
:100A20004FF0010340EA83100860604908684FF006
:100A3000010340EA032008805C4908684FF0010385
:100A400040EA43200880594908684FF001034FEA03
:100A500083136FEA030300EA030008604FF0C50246
:100A6000FFF78FFF4FF07F02FFF7A1FF4FF000026B
:100A7000FFF79DFF4FF03602FFF783FF4FF00802AC
:100A8000FFF795FF4FF03A02FFF77BFF4FF055025B
:100A9000FFF78DFF4FF01102FFF773FF00F05DF8D5
:100AA0004FF02902FFF76DFF4FF02002FFF769FFBB
:100AB0004FF02C02FFF765FF0FBD1FB54FF02A0264
:100AC000FFF75FFF02464FEA1222FFF770FF024670
:100AD000FFF76DFF0A464FEA1222FFF768FF0A464A
:100AE000FFF765FF4FF02B02FFF74BFF1A464FEA67
:100AF0001222FFF75CFF1A46FFF759FF22464FEA22
:100B00001222FFF754FF2246FFF751FF4FF02C024D
:100B1000FFF737FF1FBD2DE93F44244B1C684FF002
:100B200001054FEA85156FEA050504EA05041C6016
:100B30000B4600F1010103F10104FFF7BEFF4FF086
:100B40002C02FFF71EFF52464FEA1222FFF72FFF3B
:100B50005246FFF72CFFBDE83F842DE9FF5F1448A4
:100B600001380028FCDCBDE8FF9F2DE9FF5F10483D
:100B700002380028FCDCBDE8FF9F2DE9FF5F0C4830
:100B800004380028FCDCBDE8FF9F2DE9FF5F084822
:100B9000B0F57A700028FBDCBDE8FF9F2DE9FF5F10
:100BA000034864380028FCDCBDE8FF9F0C0C0140C2
:100BB0000460560000F01EF84FF000004FF00001F6
:100BC0004FF0F0034FF4A0744FF0000AFFF7A0FEBF
:100BD0002948028842F4706202604FF000004FF032
:100BE00000014FF430624FF450634FF46064FFF73C
:100BF0006BFBFFE72DE9FF5F00F009F8FFF7EEFE62
:100C00001D48026842F470620260BDE8FF9F07B5AC
:100C10001A4801684FF0010241EA82010160184858
:100C20004FF03332026017484FF0883202601248AA
:100C30004FF47F420260114801684FF0010241EA1F
:100C400002110160104801684FF0883101600F48BF
:100C50004FF000010160094801684FF0010241EACC
:100C6000C20101600A484FF03331016009484FF07A
:100C70003331016007BD00000C080140181002402C
:100C80000008014004080140041001400C1001401C
:100C9000000C0140040C01409600DD00FA00C80081
:100CA00000000000000000000000000018004900E3
:100CB0007A00AB00DC000D01180049007A00AB009F
:100CC000DC000D01180049007A00AB00DC000D01CA
:100CD00042004200420042004200420061006100C6
:100CE0006100610061006100800080008000800080
:040CF0008000800000
:04000005080000ED02
:00000001FF
