:020000040800F2
:1000000000060020ED000008F5000008F7000008D9
:10001000F9000008FB000008FD00000800000000D7
:10002000000000000000000000000000FF000008C9
:10003000010100080000000003010008050100089C
:100040000701000807010008070100080701000870
:100050000701000807010008070100080701000860
:100060000701000807010008070100080701000850
:100070000701000807010008070100080701000840
:100080000701000807010008070100080701000830
:100090000701000807010008070100080701000820
:1000A0000701000807010008070100080701000810
:1000B0000701000807010008070100080701000800
:1000C00007010008070100080701000807010008F0
:1000D00007010008070100080701000807010008E0
:1000E00007010008070100080701000809488047C8
:1000F00009480047FEE7FEE7FEE7FEE7FEE7FEE70A
:10010000FEE7FEE7FEE7FEE704480549054A064B21
:100110007047000061020008C902000800000020CA
:1001200000060020000200200002002070477047F7
:100130007047000080B500F001F880BD84B0002059
:100140000390029041F20001C4F20201086840F4F9
:1001500080300860FFE741F20000C4F2020000684E
:1001600000F400300290039801300390FFE70299F9
:100170000020019039B9FFE70398B0F5A06018BFDF
:1001800001200190FFE70198C0070028E3D1FFE7B5
:1001900041F20000C4F2020000688003002803D589
:1001A000FFE70120029002E000200290FFE70298A2
:1001B000012851D1FFE742F20001C4F202010868B0
:1001C00040F010000860086820F007000860086828
:1001D00040F00200086041F20401C4F20201009103
:1001E0000868086008680860086840F48060086073
:1001F000086820F47C100860086840F4E810086083
:1002000041F20001C4F20201086840F08070086009
:10021000FFE741F20000C4F20200006880010028FC
:1002200001D4FFE7F5E741F20401C4F202010868D6
:1002300020F003000860086840F002000860FFE753
:1002400041F20400C4F20200006800F00C0008282B
:1002500001D0FFE7F4E700E0FFE704B070470000DB
:1002600080B541F20002C4F20202106840F00100C1
:10027000106041F20401C4F2020108680023CFF6C5
:10028000FF031840086010684FF6FF73CFF6F6635F
:1002900018401060106820F480201060086820F476
:1002A000FE00086041F20801C4F202014FF41F0091
:1002B0000860FFF73FFF4EF60851CEF200014FF005
:1002C0000060086080BD000000F020F94FF00000E1
:1002D0004FF4A0744FF0F0034FF000014FF4963547
:1002E00040F2FF7A00F0FDF800F043F900F041F928
:1002F0000FB5B64908684FF001034FEA03236FEAD0
:10030000030300EA03000880B1490A70AF49086896
:100310004FF001034FEA032340EA030008800FBDBA
:100320000FB5AA4908684FF001034FEA432340EA9A
:1003300003000880A54908684FF001034FEAC31382
:100340006FEA030300EA03000880FFF7D1FF0FBD47
:100350000FB59E4908684FF001034FEA432340EA76
:1003600003000880994908684FF001034FEAC3135E
:1003700040EA03000880FFF7BBFF0FBD0FB59349AC
:1003800008684FF001034FEAC33340EA03000880D6
:1003900000F0EFF88D4908684FF001034FEAC333CE
:1003A0006FEA030300EA0300088000F003F98749BD
:1003B00008684FF001034FEAC33340EA03000880A6
:1003C00000F0D7F8814908684FF001034FEA831322
:1003D00040EA030008607D4908684FF001034FEAD6
:1003E000032340EA03000880784908684FF00103BE
:1003F0004FEA432340EA03000880744908684FF03D
:1004000001034FEA83136FEA030300EA0300086065
:100410004FF0C502FFF784FF4FF07F02FFF798FF10
:100420004FF00002FFF794FF4FF03602FFF778FF1E
:100430004FF06002FFF78CFF4FF03A02FFF770FFBA
:100440004FF05502FFF784FF4FF0B102FFF768FF4E
:100450004FF00002FFF77CFF4FF01002FFF778FF2C
:100460004FF01102FFF75CFF00F083F84FF0290214
:10047000FFF756FF4FF02102FFF752FF4FF02C021B
:10048000FFF74EFF0FBD1FB54FF02A02FFF748FFE1
:1004900002464FEA1222FFF75BFF0246FFF758FFC2
:1004A00022464FEA1222FFF753FF2246FFF750FF82
:1004B0004FF02B02FFF734FF0A464FEA0222FFF704
:1004C00047FF0A46FFF744FF1A464FEA0222FFF7AA
:1004D0003FFF1A46FFF73CFF4FF02C02FFF720FFCB
:1004E0001FBD2DE9FF47FFF7CEFF4FF02C02FFF7AE
:1004F00017FF52464FEA1222FFF72AFF5246FFF734
:1005000027FF013D002DF4D1BDE8FF870FB531482D
:1005100001684FF0010341EA830101602E484FF06A
:10052000000318444FF0333303602B484FF00403AB
:1005300018444FF033330360264801684FF001033D
:1005400041EAC301016025484FF0000318444FF011
:100550003333036021484FF0040318444FF0333322
:1005600003601B49086840F4FE400880FFF706FF5F
:100570000FBD2DE90041DFF86880B8F10108B8F13E
:10058000000FFADABDE800812DE90041DFF8508064
:10059000B8F10208B8F1000FFADABDE800812DE9E0
:1005A0000041DFF83C80B8F57A78B8F1000FFADA4C
:1005B000BDE800812DE90041DFF82480B8F164082E
:1005C000B8F1000FFADABDE8008100000C0C014020
:1005D0000C0801401810024000080140000C0140C6
:0405E000046056005D
:04000005080000ED02
:00000001FF
