:020000040800F2
:1000000000060020ED000008F5000008F7000008D9
:10001000F9000008FB000008FD00000800000000D7
:10002000000000000000000000000000FF000008C9
:10003000010100080000000003010008050100089C
:100040000701000807010008070100080701000870
:100050000701000807010008070100080701000860
:100060000701000807010008070100080701000850
:100070000701000807010008070100080701000840
:100080000701000807010008070100080701000830
:100090000701000807010008070100080701000820
:1000A0000701000807010008070100080701000810
:1000B0000701000807010008070100080701000800
:1000C00007010008070100080701000807010008F0
:1000D00007010008070100080701000807010008E0
:1000E00007010008070100080701000809488047C8
:1000F00009480047FEE7FEE7FEE7FEE7FEE7FEE70A
:10010000FEE7FEE7FEE7FEE704480549054A064B21
:100110007047000061020008C902000800000020CA
:1001200000060020000200200002002070477047F7
:100130007047000080B500F001F880BD84B0002059
:100140000390029041F20001C4F20201086840F4F9
:1001500080300860FFE741F20000C4F2020000684E
:1001600000F400300290039801300390FFE70299F9
:100170000020019039B9FFE70398B0F5A06018BFDF
:1001800001200190FFE70198C0070028E3D1FFE7B5
:1001900041F20000C4F2020000688003002803D589
:1001A000FFE70120029002E000200290FFE70298A2
:1001B000012851D1FFE742F20001C4F202010868B0
:1001C00040F010000860086820F007000860086828
:1001D00040F00200086041F20401C4F20201009103
:1001E0000868086008680860086840F48060086073
:1001F000086820F47C100860086840F4E810086083
:1002000041F20001C4F20201086840F08070086009
:10021000FFE741F20000C4F20200006880010028FC
:1002200001D4FFE7F5E741F20401C4F202010868D6
:1002300020F003000860086840F002000860FFE753
:1002400041F20400C4F20200006800F00C0008282B
:1002500001D0FFE7F4E700E0FFE704B070470000DB
:1002600080B541F20002C4F20202106840F00100C1
:10027000106041F20401C4F2020108680023CFF6C5
:10028000FF031840086010684FF6FF73CFF6F6635F
:1002900018401060106820F480201060086820F476
:1002A000FE00086041F20801C4F202014FF41F0091
:1002B0000860FFF73FFF4EF60851CEF200014FF005
:1002C0000060086080BD000000F00DF83D484FF66A
:1002D000FF7101603C484FF6FF7101603B484FF6EB
:1002E000FF710160F2E707B5394801684FF001027C
:1002F00041EA8201016037484FF0333202603648EC
:100300004FF033320260324801684FF0010241EA97
:100310000211016031484FF03332026030484FF033
:10032000333202602A4801684FF0010241EAC201FB
:1003300001602C48016821F07F4141F04C5101607F
:1003400029484FF03332026007BD2DE9FF5F1D4899
:100350004FF000024FF0010101FA02F1016000F0DC
:100360002AF802F10102102AF4DBBDE8FF9F2DE913
:10037000FF5F15484FF000024FF0010101FA02F152
:10038000016000F018F802F10102102AF4DBBDE868
:10039000FF9F2DE9FF5F0D484FF000024FF0010174
:1003A00001FA02F1016000F006F802F10102102AE0
:1003B000F4DBBDE8FF9F01B50C4801380028FCDCE8
:1003C00001BD00000C0801400C0C01400C10014064
:1003D00018100240000801400408014004100140C8
:1003E00000100140000C0140040C01400460560064
:04000005080000ED02
:00000001FF
